{
  "contractName": "AnbeShivamMain",
  "abi": [
    {
      "anonymous": false,
      "inputs": [
        {
          "indexed": true,
          "internalType": "address",
          "name": "previousOwner",
          "type": "address"
        },
        {
          "indexed": true,
          "internalType": "address",
          "name": "newOwner",
          "type": "address"
        }
      ],
      "name": "OwnershipTransferred",
      "type": "event"
    },
    {
      "anonymous": false,
      "inputs": [
        {
          "indexed": false,
          "internalType": "uint256",
          "name": "",
          "type": "uint256"
        },
        {
          "indexed": false,
          "internalType": "string",
          "name": "",
          "type": "string"
        },
        {
          "indexed": false,
          "internalType": "string",
          "name": "",
          "type": "string"
        }
      ],
      "name": "newContentAdded",
      "type": "event"
    },
    {
      "anonymous": false,
      "inputs": [
        {
          "indexed": false,
          "internalType": "uint256",
          "name": "",
          "type": "uint256"
        },
        {
          "indexed": false,
          "internalType": "uint256",
          "name": "",
          "type": "uint256"
        },
        {
          "indexed": false,
          "internalType": "address",
          "name": "",
          "type": "address"
        }
      ],
      "name": "projectFunded",
      "type": "event"
    },
    {
      "anonymous": false,
      "inputs": [
        {
          "indexed": false,
          "internalType": "uint256",
          "name": "",
          "type": "uint256"
        }
      ],
      "name": "setMatchingPool",
      "type": "event"
    },
    {
      "inputs": [
        {
          "internalType": "uint256",
          "name": "",
          "type": "uint256"
        }
      ],
      "name": "contents",
      "outputs": [
        {
          "internalType": "uint256",
          "name": "id",
          "type": "uint256"
        },
        {
          "internalType": "uint256",
          "name": "receivedFunds",
          "type": "uint256"
        },
        {
          "internalType": "uint256",
          "name": "matchedFunds",
          "type": "uint256"
        },
        {
          "internalType": "uint256",
          "name": "weight",
          "type": "uint256"
        },
        {
          "internalType": "uint256",
          "name": "votes",
          "type": "uint256"
        },
        {
          "internalType": "bool",
          "name": "isListed",
          "type": "bool"
        },
        {
          "internalType": "string",
          "name": "name",
          "type": "string"
        },
        {
          "internalType": "string",
          "name": "fileURL",
          "type": "string"
        },
        {
          "internalType": "address payable",
          "name": "creator",
          "type": "address"
        }
      ],
      "stateMutability": "view",
      "type": "function"
    },
    {
      "inputs": [],
      "name": "fundingPool",
      "outputs": [
        {
          "internalType": "uint256",
          "name": "",
          "type": "uint256"
        }
      ],
      "stateMutability": "view",
      "type": "function"
    },
    {
      "inputs": [],
      "name": "matchingPool",
      "outputs": [
        {
          "internalType": "uint256",
          "name": "",
          "type": "uint256"
        }
      ],
      "stateMutability": "view",
      "type": "function"
    },
    {
      "inputs": [],
      "name": "owner",
      "outputs": [
        {
          "internalType": "address",
          "name": "",
          "type": "address"
        }
      ],
      "stateMutability": "view",
      "type": "function"
    },
    {
      "inputs": [],
      "name": "renounceOwnership",
      "outputs": [],
      "stateMutability": "nonpayable",
      "type": "function"
    },
    {
      "inputs": [
        {
          "internalType": "address",
          "name": "newOwner",
          "type": "address"
        }
      ],
      "name": "transferOwnership",
      "outputs": [],
      "stateMutability": "nonpayable",
      "type": "function"
    },
    {
      "inputs": [],
      "name": "syncMatchedFunds",
      "outputs": [],
      "stateMutability": "nonpayable",
      "type": "function"
    },
    {
      "inputs": [],
      "name": "returnContentCount",
      "outputs": [
        {
          "internalType": "uint256",
          "name": "",
          "type": "uint256"
        }
      ],
      "stateMutability": "view",
      "type": "function"
    },
    {
      "inputs": [
        {
          "internalType": "address",
          "name": "_GODSContract",
          "type": "address"
        },
        {
          "internalType": "address",
          "name": "_NFTContract",
          "type": "address"
        }
      ],
      "name": "setContractAddresses",
      "outputs": [],
      "stateMutability": "nonpayable",
      "type": "function"
    },
    {
      "inputs": [],
      "name": "increaseMatchingPool",
      "outputs": [],
      "stateMutability": "payable",
      "type": "function"
    },
    {
      "inputs": [
        {
          "internalType": "string",
          "name": "_name",
          "type": "string"
        },
        {
          "internalType": "string",
          "name": "_fileURL",
          "type": "string"
        }
      ],
      "name": "addContent",
      "outputs": [],
      "stateMutability": "payable",
      "type": "function"
    },
    {
      "inputs": [
        {
          "internalType": "uint256",
          "name": "_contentID",
          "type": "uint256"
        },
        {
          "internalType": "string",
          "name": "_metadata",
          "type": "string"
        }
      ],
      "name": "investFunds",
      "outputs": [],
      "stateMutability": "payable",
      "type": "function"
    },
    {
      "inputs": [
        {
          "internalType": "uint256",
          "name": "_contentID",
          "type": "uint256"
        }
      ],
      "name": "withdrawFunds",
      "outputs": [],
      "stateMutability": "nonpayable",
      "type": "function"
    }
  ],
  "bytecode": "0x608060405234801561001057600080fd5b5061002d61002261003260201b60201c565b61003a60201b60201c565b6100fe565b600033905090565b60008060009054906101000a900473ffffffffffffffffffffffffffffffffffffffff169050816000806101000a81548173ffffffffffffffffffffffffffffffffffffffff021916908373ffffffffffffffffffffffffffffffffffffffff1602179055508173ffffffffffffffffffffffffffffffffffffffff168173ffffffffffffffffffffffffffffffffffffffff167f8be0079c531659141344cd1fd0a4f28419497f9722a3daafe3b4186f6b6457e060405160405180910390a35050565b612102806200010e6000396000f3fe6080604052600436106100c25760003560e01c8063aacef18b1161007f578063e6a122af11610059578063e6a122af14610217578063f2fde38b14610233578063f6a1fe941461025c578063f761d00814610287576100c2565b8063aacef18b1461017e578063b5ecf912146101a9578063cd931e40146101ee576100c2565b8063155dd5ee146100c757806344af6a89146100f057806350ca4671146100fa578063715018a61461011157806380230f60146101285780638da5cb5b14610153575b600080fd5b3480156100d357600080fd5b506100ee60048036038101906100e99190611484565b6102a3565b005b6100f8610597565b005b34801561010657600080fd5b5061010f610674565b005b34801561011d57600080fd5b506101266107b6565b005b34801561013457600080fd5b5061013d61083e565b60405161014a91906114c0565b60405180910390f35b34801561015f57600080fd5b5061016861084b565b604051610175919061151c565b60405180910390f35b34801561018a57600080fd5b50610193610874565b6040516101a091906114c0565b60405180910390f35b3480156101b557600080fd5b506101d060048036038101906101cb9190611484565b61087a565b6040516101e59998979695949392919061160c565b60405180910390f35b3480156101fa57600080fd5b50610215600480360381019061021091906116d3565b610a15565b005b610231600480360381019061022c9190611848565b610b17565b005b34801561023f57600080fd5b5061025a600480360381019061025591906118a4565b610eeb565b005b34801561026857600080fd5b50610271610fe3565b60405161027e91906114c0565b60405180910390f35b6102a1600480360381019061029c91906118d1565b610fe9565b005b600481815481106102b7576102b6611949565b5b906000526020600020906009020160050160009054906101000a900460ff16610315576040517f08c379a000000000000000000000000000000000000000000000000000000000815260040161030c906119c4565b60405180910390fd5b6004818154811061032957610328611949565b5b906000526020600020906009020160080160009054906101000a900473ffffffffffffffffffffffffffffffffffffffff1673ffffffffffffffffffffffffffffffffffffffff163373ffffffffffffffffffffffffffffffffffffffff16146103c8576040517f08c379a00000000000000000000000000000000000000000000000000000000081526004016103bf90611a30565b60405180910390fd5b6000671bc16d674ec80000600483815481106103e7576103e6611949565b5b9060005260206000209060090201600201546004848154811061040d5761040c611949565b5b9060005260206000209060090201600101546104299190611a7f565b6104339190611a7f565b905060006004838154811061044b5761044a611949565b5b9060005260206000209060090201600101819055506004828154811061047457610473611949565b5b906000526020600020906009020160020154600660008282546104979190611ad5565b925050819055506000600483815481106104b4576104b3611949565b5b9060005260206000209060090201600201819055506000600483815481106104df576104de611949565b5b906000526020600020906009020160050160006101000a81548160ff0219169083151502179055506004828154811061051b5761051a611949565b5b906000526020600020906009020160080160009054906101000a900473ffffffffffffffffffffffffffffffffffffffff1673ffffffffffffffffffffffffffffffffffffffff166108fc829081150290604051600060405180830381858888f19350505050158015610592573d6000803e3d6000fd5b505050565b61059f611251565b73ffffffffffffffffffffffffffffffffffffffff166105bd61084b565b73ffffffffffffffffffffffffffffffffffffffff1614610613576040517f08c379a000000000000000000000000000000000000000000000000000000000815260040161060a90611b55565b60405180910390fd5b6000341161062057600080fd5b34600660008282546106329190611a7f565b925050819055507fd3c8f29288a6d7db6f728ee4af1aef615d3caaef2bd55332d7a3860b27f4e2e160065460405161066a91906114c0565b60405180910390a1565b61067c611251565b73ffffffffffffffffffffffffffffffffffffffff1661069a61084b565b73ffffffffffffffffffffffffffffffffffffffff16146106f0576040517f08c379a00000000000000000000000000000000000000000000000000000000081526004016106e790611b55565b60405180910390fd5b60005b6004805490508110156107b3576004818154811061071457610713611949565b5b906000526020600020906009020160050160009054906101000a900460ff16156107a2576003546006546004838154811061075257610751611949565b5b90600052602060002090600902016003015461076e9190611b75565b6107789190611bfe565b6004828154811061078c5761078b611949565b5b9060005260206000209060090201600201819055505b806107ac90611c2f565b90506106f3565b50565b6107be611251565b73ffffffffffffffffffffffffffffffffffffffff166107dc61084b565b73ffffffffffffffffffffffffffffffffffffffff1614610832576040517f08c379a000000000000000000000000000000000000000000000000000000000815260040161082990611b55565b60405180910390fd5b61083c6000611259565b565b6000600480549050905090565b60008060009054906101000a900473ffffffffffffffffffffffffffffffffffffffff16905090565b60065481565b6004818154811061088a57600080fd5b90600052602060002090600902016000915090508060000154908060010154908060020154908060030154908060040154908060050160009054906101000a900460ff16908060060180546108de90611ca7565b80601f016020809104026020016040519081016040528092919081815260200182805461090a90611ca7565b80156109575780601f1061092c57610100808354040283529160200191610957565b820191906000526020600020905b81548152906001019060200180831161093a57829003601f168201915b50505050509080600701805461096c90611ca7565b80601f016020809104026020016040519081016040528092919081815260200182805461099890611ca7565b80156109e55780601f106109ba576101008083540402835291602001916109e5565b820191906000526020600020905b8154815290600101906020018083116109c857829003601f168201915b5050505050908060080160009054906101000a900473ffffffffffffffffffffffffffffffffffffffff16905089565b610a1d611251565b73ffffffffffffffffffffffffffffffffffffffff16610a3b61084b565b73ffffffffffffffffffffffffffffffffffffffff1614610a91576040517f08c379a0000000000000000000000000000000000000000000000000000000008152600401610a8890611b55565b60405180910390fd5b81600160006101000a81548173ffffffffffffffffffffffffffffffffffffffff021916908373ffffffffffffffffffffffffffffffffffffffff16021790555080600260006101000a81548173ffffffffffffffffffffffffffffffffffffffff021916908373ffffffffffffffffffffffffffffffffffffffff1602179055505050565b670de0b6b3a7640000341015610b2c57600080fd5b60048281548110610b4057610b3f611949565b5b906000526020600020906009020160080160009054906101000a900473ffffffffffffffffffffffffffffffffffffffff1673ffffffffffffffffffffffffffffffffffffffff163373ffffffffffffffffffffffffffffffffffffffff161415610baa57600080fd5b600160048381548110610bc057610bbf611949565b5b90600052602060002090600902016004016000828254610be09190611a7f565b9250508190555060048281548110610bfb57610bfa611949565b5b90600052602060002090600902016003015460036000828254610c1e9190611ad5565b925050819055503460048381548110610c3a57610c39611949565b5b90600052602060002090600902016001016000828254610c5a9190611a7f565b9250508190555060048281548110610c7557610c74611949565b5b9060005260206000209060090201600101546002610c923461131d565b610cf060048681548110610ca957610ca8611949565b5b90600052602060002090600902016001015460048781548110610ccf57610cce611949565b5b906000526020600020906009020160030154610ceb9190611a7f565b61131d565b610cfa9190611a7f565b610d049190611e19565b610d0e9190611ad5565b60048381548110610d2257610d21611949565b5b9060005260206000209060090201600301819055503460056000828254610d499190611a7f565b9250508190555060048281548110610d6457610d63611949565b5b90600052602060002090600902016003015460036000828254610d879190611a7f565b92505081905550600160009054906101000a900473ffffffffffffffffffffffffffffffffffffffff1673ffffffffffffffffffffffffffffffffffffffff166340c10f1933346040518363ffffffff1660e01b8152600401610deb929190611e64565b600060405180830381600087803b158015610e0557600080fd5b505af1158015610e19573d6000803e3d6000fd5b50505050600260009054906101000a900473ffffffffffffffffffffffffffffffffffffffff1673ffffffffffffffffffffffffffffffffffffffff1663d204c45e33836040518363ffffffff1660e01b8152600401610e7a929190611e8d565b600060405180830381600087803b158015610e9457600080fd5b505af1158015610ea8573d6000803e3d6000fd5b505050507f31f78011fdaa6f4db6e053d1e5b5340b2d48b1c14cedc616a5bde37c16415cf2823433604051610edf93929190611ebd565b60405180910390a15050565b610ef3611251565b73ffffffffffffffffffffffffffffffffffffffff16610f1161084b565b73ffffffffffffffffffffffffffffffffffffffff1614610f67576040517f08c379a0000000000000000000000000000000000000000000000000000000008152600401610f5e90611b55565b60405180910390fd5b600073ffffffffffffffffffffffffffffffffffffffff168173ffffffffffffffffffffffffffffffffffffffff161415610fd7576040517f08c379a0000000000000000000000000000000000000000000000000000000008152600401610fce90611f66565b60405180910390fd5b610fe081611259565b50565b60055481565b671bc16d674ec80000341015611034576040517f08c379a000000000000000000000000000000000000000000000000000000000815260040161102b90611fd2565b60405180910390fd5b60046040518061012001604052806004805490508152602001600081526020016000815260200160008152602001600081526020016001151581526020018481526020018381526020013373ffffffffffffffffffffffffffffffffffffffff168152509080600181540180825580915050600190039060005260206000209060090201600090919091909150600082015181600001556020820151816001015560408201518160020155606082015181600301556080820151816004015560a08201518160050160006101000a81548160ff02191690831515021790555060c082015181600601908051906020019061112f929190611397565b5060e082015181600701908051906020019061114c929190611397565b506101008201518160080160006101000a81548173ffffffffffffffffffffffffffffffffffffffff021916908373ffffffffffffffffffffffffffffffffffffffff16021790555050507f9d052371d5508337cb778bebe3c70018c8e5eeb5c8c0899f00cffbda54f743e060016004805490506111ca9190611ad5565b600460016004805490506111de9190611ad5565b815481106111ef576111ee611949565b5b9060005260206000209060090201600601600460016004805490506112149190611ad5565b8154811061122557611224611949565b5b906000526020600020906009020160070160405161124593929190612087565b60405180910390a15050565b600033905090565b60008060009054906101000a900473ffffffffffffffffffffffffffffffffffffffff169050816000806101000a81548173ffffffffffffffffffffffffffffffffffffffff021916908373ffffffffffffffffffffffffffffffffffffffff1602179055508173ffffffffffffffffffffffffffffffffffffffff168173ffffffffffffffffffffffffffffffffffffffff167f8be0079c531659141344cd1fd0a4f28419497f9722a3daafe3b4186f6b6457e060405160405180910390a35050565b60006003821115611384578190506000600160028461133c9190611bfe565b6113469190611a7f565b90505b8181101561137e5780915060028182856113639190611bfe565b61136d9190611a7f565b6113779190611bfe565b9050611349565b50611392565b6000821461139157600190505b5b919050565b8280546113a390611ca7565b90600052602060002090601f0160209004810192826113c5576000855561140c565b82601f106113de57805160ff191683800117855561140c565b8280016001018555821561140c579182015b8281111561140b5782518255916020019190600101906113f0565b5b509050611419919061141d565b5090565b5b8082111561143657600081600090555060010161141e565b5090565b6000604051905090565b600080fd5b600080fd5b6000819050919050565b6114618161144e565b811461146c57600080fd5b50565b60008135905061147e81611458565b92915050565b60006020828403121561149a57611499611444565b5b60006114a88482850161146f565b91505092915050565b6114ba8161144e565b82525050565b60006020820190506114d560008301846114b1565b92915050565b600073ffffffffffffffffffffffffffffffffffffffff82169050919050565b6000611506826114db565b9050919050565b611516816114fb565b82525050565b6000602082019050611531600083018461150d565b92915050565b60008115159050919050565b61154c81611537565b82525050565b600081519050919050565b600082825260208201905092915050565b60005b8381101561158c578082015181840152602081019050611571565b8381111561159b576000848401525b50505050565b6000601f19601f8301169050919050565b60006115bd82611552565b6115c7818561155d565b93506115d781856020860161156e565b6115e0816115a1565b840191505092915050565b60006115f6826114db565b9050919050565b611606816115eb565b82525050565b600061012082019050611622600083018c6114b1565b61162f602083018b6114b1565b61163c604083018a6114b1565b61164960608301896114b1565b61165660808301886114b1565b61166360a0830187611543565b81810360c083015261167581866115b2565b905081810360e083015261168981856115b2565b90506116996101008301846115fd565b9a9950505050505050505050565b6116b0816114fb565b81146116bb57600080fd5b50565b6000813590506116cd816116a7565b92915050565b600080604083850312156116ea576116e9611444565b5b60006116f8858286016116be565b9250506020611709858286016116be565b9150509250929050565b600080fd5b600080fd5b7f4e487b7100000000000000000000000000000000000000000000000000000000600052604160045260246000fd5b611755826115a1565b810181811067ffffffffffffffff821117156117745761177361171d565b5b80604052505050565b600061178761143a565b9050611793828261174c565b919050565b600067ffffffffffffffff8211156117b3576117b261171d565b5b6117bc826115a1565b9050602081019050919050565b82818337600083830152505050565b60006117eb6117e684611798565b61177d565b90508281526020810184848401111561180757611806611718565b5b6118128482856117c9565b509392505050565b600082601f83011261182f5761182e611713565b5b813561183f8482602086016117d8565b91505092915050565b6000806040838503121561185f5761185e611444565b5b600061186d8582860161146f565b925050602083013567ffffffffffffffff81111561188e5761188d611449565b5b61189a8582860161181a565b9150509250929050565b6000602082840312156118ba576118b9611444565b5b60006118c8848285016116be565b91505092915050565b600080604083850312156118e8576118e7611444565b5b600083013567ffffffffffffffff81111561190657611905611449565b5b6119128582860161181a565b925050602083013567ffffffffffffffff81111561193357611932611449565b5b61193f8582860161181a565b9150509250929050565b7f4e487b7100000000000000000000000000000000000000000000000000000000600052603260045260246000fd5b7f556e6c69737465642070726f6a65637400000000000000000000000000000000600082015250565b60006119ae60108361155d565b91506119b982611978565b602082019050919050565b600060208201905081810360008301526119dd816119a1565b9050919050565b7f4e6f742063726561746f72000000000000000000000000000000000000000000600082015250565b6000611a1a600b8361155d565b9150611a25826119e4565b602082019050919050565b60006020820190508181036000830152611a4981611a0d565b9050919050565b7f4e487b7100000000000000000000000000000000000000000000000000000000600052601160045260246000fd5b6000611a8a8261144e565b9150611a958361144e565b9250827fffffffffffffffffffffffffffffffffffffffffffffffffffffffffffffffff03821115611aca57611ac9611a50565b5b828201905092915050565b6000611ae08261144e565b9150611aeb8361144e565b925082821015611afe57611afd611a50565b5b828203905092915050565b7f4f776e61626c653a2063616c6c6572206973206e6f7420746865206f776e6572600082015250565b6000611b3f60208361155d565b9150611b4a82611b09565b602082019050919050565b60006020820190508181036000830152611b6e81611b32565b9050919050565b6000611b808261144e565b9150611b8b8361144e565b9250817fffffffffffffffffffffffffffffffffffffffffffffffffffffffffffffffff0483118215151615611bc457611bc3611a50565b5b828202905092915050565b7f4e487b7100000000000000000000000000000000000000000000000000000000600052601260045260246000fd5b6000611c098261144e565b9150611c148361144e565b925082611c2457611c23611bcf565b5b828204905092915050565b6000611c3a8261144e565b91507fffffffffffffffffffffffffffffffffffffffffffffffffffffffffffffffff821415611c6d57611c6c611a50565b5b600182019050919050565b7f4e487b7100000000000000000000000000000000000000000000000000000000600052602260045260246000fd5b60006002820490506001821680611cbf57607f821691505b60208210811415611cd357611cd2611c78565b5b50919050565b60008160011c9050919050565b6000808291508390505b6001851115611d3057808604811115611d0c57611d0b611a50565b5b6001851615611d1b5780820291505b8081029050611d2985611cd9565b9450611cf0565b94509492505050565b600082611d495760019050611e05565b81611d575760009050611e05565b8160018114611d6d5760028114611d7757611da6565b6001915050611e05565b60ff841115611d8957611d88611a50565b5b8360020a915084821115611da057611d9f611a50565b5b50611e05565b5060208310610133831016604e8410600b8410161715611ddb5782820a905083811115611dd657611dd5611a50565b5b611e05565b611de88484846001611ce6565b92509050818404811115611dff57611dfe611a50565b5b81810290505b9392505050565b600060ff82169050919050565b6000611e248261144e565b9150611e2f83611e0c565b9250611e5c7fffffffffffffffffffffffffffffffffffffffffffffffffffffffffffffffff8484611d39565b905092915050565b6000604082019050611e79600083018561150d565b611e8660208301846114b1565b9392505050565b6000604082019050611ea2600083018561150d565b8181036020830152611eb481846115b2565b90509392505050565b6000606082019050611ed260008301866114b1565b611edf60208301856114b1565b611eec604083018461150d565b949350505050565b7f4f776e61626c653a206e6577206f776e657220697320746865207a65726f206160008201527f6464726573730000000000000000000000000000000000000000000000000000602082015250565b6000611f5060268361155d565b9150611f5b82611ef4565b604082019050919050565b60006020820190508181036000830152611f7f81611f43565b9050919050565b7f496e73756666696369656e7420616d6f756e7400000000000000000000000000600082015250565b6000611fbc60138361155d565b9150611fc782611f86565b602082019050919050565b60006020820190508181036000830152611feb81611faf565b9050919050565b60008190508160005260206000209050919050565b6000815461201481611ca7565b61201e818661155d565b94506001821660008114612039576001811461204b5761207e565b60ff198316865260208601935061207e565b61205485611ff2565b60005b8381101561207657815481890152600182019150602081019050612057565b808801955050505b50505092915050565b600060608201905061209c60008301866114b1565b81810360208301526120ae8185612007565b905081810360408301526120c28184612007565b905094935050505056fea2646970667358221220ae9cf0a52caa4e7ea85034b93a92ee31729a372aa9a6deaab8d5eb2d5754259a64736f6c634300080b0033",
  "immutableReferences": {},
  "source": "// SPDX-License-Identifier: MIT\r\npragma solidity >=0.4.22 <0.9.0;\r\n\r\nimport \"./AnbeShivamNFT.sol\";\r\nimport \"./AnbeShivamInvestorToken.sol\";\r\nimport \"@openzeppelin/contracts/access/Ownable.sol\";\r\n\r\ncontract AnbeShivamMain is Ownable {\r\n    address GODSContract;\r\n    address NFTContract;\r\n    uint totalWeight;\r\n\r\n    struct Content {\r\n        uint id;\r\n        uint receivedFunds;\r\n        uint matchedFunds;\r\n        uint weight;\r\n        uint votes;\r\n        bool isListed;\r\n        string name;\r\n        string fileURL;\r\n        address payable creator;\r\n    }\r\n\r\n    Content[] public contents;\r\n    uint public fundingPool;\r\n    uint public matchingPool;\r\n\r\n    event newContentAdded(uint, string, string);\r\n    event projectFunded(uint, uint, address);\r\n    event setMatchingPool(uint);\r\n\r\n    function sqrt(uint y) internal pure returns (uint z) {\r\n        if (y > 3) {\r\n            z = y;\r\n            uint x = y / 2 + 1;\r\n            while (x < z) {\r\n                z = x;\r\n                x = (y / x + x) / 2;\r\n            }\r\n        } else if (y != 0) {\r\n            z = 1;\r\n        }\r\n    }\r\n\r\n    function syncMatchedFunds() external onlyOwner {\r\n        for(uint i=0; i < contents.length; ++i) {\r\n            if(contents[i].isListed) {\r\n                contents[i].matchedFunds = contents[i].weight*matchingPool/totalWeight;\r\n            }\r\n        }\r\n    } \r\n\r\n    function returnContentCount() external view returns (uint) {\r\n        return contents.length;\r\n    } \r\n\r\n    function setContractAddresses(\r\n        address _GODSContract, \r\n        address _NFTContract\r\n    ) \r\n        external \r\n        onlyOwner \r\n    {\r\n        GODSContract = _GODSContract;\r\n        NFTContract = _NFTContract;\r\n    }\r\n\r\n    function increaseMatchingPool() external payable onlyOwner {\r\n        require(msg.value > 0);\r\n        matchingPool += msg.value;\r\n        emit setMatchingPool(matchingPool);\r\n    }\r\n\r\n    function addContent(string memory _name, string memory _fileURL) external payable {\r\n        require(msg.value >= 2 ether, \"Insufficient amount\");\r\n        contents.push(\r\n            Content(\r\n                contents.length, \r\n                0, 0, 0, 0, \r\n                true, \r\n                _name, \r\n                _fileURL, \r\n                payable(msg.sender)\r\n            )\r\n        );\r\n        emit newContentAdded(\r\n            contents.length - 1,\r\n            contents[contents.length - 1].name,\r\n            contents[contents.length - 1].fileURL\r\n        );\r\n    }\r\n\r\n    function investFunds(uint _contentID, string memory _metadata) external payable {\r\n        require(msg.value >= 1 ether);\r\n        require(msg.sender != contents[_contentID].creator);\r\n        contents[_contentID].votes += 1;\r\n        totalWeight -= contents[_contentID].weight;\r\n        contents[_contentID].receivedFunds += msg.value;\r\n        contents[_contentID].weight = (sqrt(contents[_contentID].weight + contents[_contentID].receivedFunds) + sqrt(msg.value))**2 - contents[_contentID].receivedFunds;\r\n        fundingPool += msg.value;\r\n        totalWeight += contents[_contentID].weight;\r\n        AnbeShivamInvestorToken(GODSContract).mint(msg.sender, msg.value);\r\n        AnbeShivamNFT(NFTContract).safeMint(msg.sender, _metadata);\r\n        emit projectFunded(_contentID, msg.value, msg.sender);\r\n    }\r\n\r\n    function withdrawFunds(uint _contentID) external {\r\n        require(contents[_contentID].isListed, \"Unlisted project\");\r\n        require(msg.sender == contents[_contentID].creator, \"Not creator\");\r\n        uint totalFunds = contents[_contentID].receivedFunds + contents[_contentID].matchedFunds + 2 ether;\r\n        contents[_contentID].receivedFunds = 0;\r\n        matchingPool -= contents[_contentID].matchedFunds;\r\n        contents[_contentID].matchedFunds = 0;\r\n        contents[_contentID].isListed = false;\r\n        contents[_contentID].creator.transfer(totalFunds);\r\n    }\r\n}",
  "sourcePath": "D:/Projects/AnbeShivam-Metis/contracts/AnbeShivamMain.sol",
  "compiler": {
    "name": "solc",
    "version": "0.8.11+commit.d7f03943.Emscripten.clang"
  },
  "schemaVersion": "3.4.1",
  "updatedAt": "2021-12-23T04:13:46.448Z",
  "devdoc": {
    "kind": "dev",
    "methods": {
      "owner()": {
        "details": "Returns the address of the current owner."
      },
      "renounceOwnership()": {
        "details": "Leaves the contract without owner. It will not be possible to call `onlyOwner` functions anymore. Can only be called by the current owner. NOTE: Renouncing ownership will leave the contract without an owner, thereby removing any functionality that is only available to the owner."
      },
      "transferOwnership(address)": {
        "details": "Transfers ownership of the contract to a new account (`newOwner`). Can only be called by the current owner."
      }
    },
    "version": 1
  },
  "userdoc": {
    "kind": "user",
    "methods": {},
    "version": 1
  }
}