{
  "contractName": "AnbeShivamNFT",
  "abi": [
    {
      "inputs": [],
      "stateMutability": "nonpayable",
      "type": "constructor"
    },
    {
      "anonymous": false,
      "inputs": [
        {
          "indexed": true,
          "internalType": "address",
          "name": "owner",
          "type": "address"
        },
        {
          "indexed": true,
          "internalType": "address",
          "name": "approved",
          "type": "address"
        },
        {
          "indexed": true,
          "internalType": "uint256",
          "name": "tokenId",
          "type": "uint256"
        }
      ],
      "name": "Approval",
      "type": "event"
    },
    {
      "anonymous": false,
      "inputs": [
        {
          "indexed": true,
          "internalType": "address",
          "name": "owner",
          "type": "address"
        },
        {
          "indexed": true,
          "internalType": "address",
          "name": "operator",
          "type": "address"
        },
        {
          "indexed": false,
          "internalType": "bool",
          "name": "approved",
          "type": "bool"
        }
      ],
      "name": "ApprovalForAll",
      "type": "event"
    },
    {
      "anonymous": false,
      "inputs": [
        {
          "indexed": true,
          "internalType": "bytes32",
          "name": "role",
          "type": "bytes32"
        },
        {
          "indexed": true,
          "internalType": "bytes32",
          "name": "previousAdminRole",
          "type": "bytes32"
        },
        {
          "indexed": true,
          "internalType": "bytes32",
          "name": "newAdminRole",
          "type": "bytes32"
        }
      ],
      "name": "RoleAdminChanged",
      "type": "event"
    },
    {
      "anonymous": false,
      "inputs": [
        {
          "indexed": true,
          "internalType": "bytes32",
          "name": "role",
          "type": "bytes32"
        },
        {
          "indexed": true,
          "internalType": "address",
          "name": "account",
          "type": "address"
        },
        {
          "indexed": true,
          "internalType": "address",
          "name": "sender",
          "type": "address"
        }
      ],
      "name": "RoleGranted",
      "type": "event"
    },
    {
      "anonymous": false,
      "inputs": [
        {
          "indexed": true,
          "internalType": "bytes32",
          "name": "role",
          "type": "bytes32"
        },
        {
          "indexed": true,
          "internalType": "address",
          "name": "account",
          "type": "address"
        },
        {
          "indexed": true,
          "internalType": "address",
          "name": "sender",
          "type": "address"
        }
      ],
      "name": "RoleRevoked",
      "type": "event"
    },
    {
      "anonymous": false,
      "inputs": [
        {
          "indexed": true,
          "internalType": "address",
          "name": "from",
          "type": "address"
        },
        {
          "indexed": true,
          "internalType": "address",
          "name": "to",
          "type": "address"
        },
        {
          "indexed": true,
          "internalType": "uint256",
          "name": "tokenId",
          "type": "uint256"
        }
      ],
      "name": "Transfer",
      "type": "event"
    },
    {
      "inputs": [],
      "name": "DEFAULT_ADMIN_ROLE",
      "outputs": [
        {
          "internalType": "bytes32",
          "name": "",
          "type": "bytes32"
        }
      ],
      "stateMutability": "view",
      "type": "function"
    },
    {
      "inputs": [],
      "name": "MINTER_ROLE",
      "outputs": [
        {
          "internalType": "bytes32",
          "name": "",
          "type": "bytes32"
        }
      ],
      "stateMutability": "view",
      "type": "function"
    },
    {
      "inputs": [
        {
          "internalType": "address",
          "name": "to",
          "type": "address"
        },
        {
          "internalType": "uint256",
          "name": "tokenId",
          "type": "uint256"
        }
      ],
      "name": "approve",
      "outputs": [],
      "stateMutability": "nonpayable",
      "type": "function"
    },
    {
      "inputs": [
        {
          "internalType": "uint256",
          "name": "",
          "type": "uint256"
        }
      ],
      "name": "badges",
      "outputs": [
        {
          "internalType": "uint256",
          "name": "tokenID",
          "type": "uint256"
        },
        {
          "internalType": "address",
          "name": "owner",
          "type": "address"
        }
      ],
      "stateMutability": "view",
      "type": "function"
    },
    {
      "inputs": [
        {
          "internalType": "address",
          "name": "owner",
          "type": "address"
        }
      ],
      "name": "balanceOf",
      "outputs": [
        {
          "internalType": "uint256",
          "name": "",
          "type": "uint256"
        }
      ],
      "stateMutability": "view",
      "type": "function"
    },
    {
      "inputs": [
        {
          "internalType": "uint256",
          "name": "tokenId",
          "type": "uint256"
        }
      ],
      "name": "getApproved",
      "outputs": [
        {
          "internalType": "address",
          "name": "",
          "type": "address"
        }
      ],
      "stateMutability": "view",
      "type": "function"
    },
    {
      "inputs": [
        {
          "internalType": "bytes32",
          "name": "role",
          "type": "bytes32"
        }
      ],
      "name": "getRoleAdmin",
      "outputs": [
        {
          "internalType": "bytes32",
          "name": "",
          "type": "bytes32"
        }
      ],
      "stateMutability": "view",
      "type": "function"
    },
    {
      "inputs": [
        {
          "internalType": "bytes32",
          "name": "role",
          "type": "bytes32"
        },
        {
          "internalType": "address",
          "name": "account",
          "type": "address"
        }
      ],
      "name": "grantRole",
      "outputs": [],
      "stateMutability": "nonpayable",
      "type": "function"
    },
    {
      "inputs": [
        {
          "internalType": "bytes32",
          "name": "role",
          "type": "bytes32"
        },
        {
          "internalType": "address",
          "name": "account",
          "type": "address"
        }
      ],
      "name": "hasRole",
      "outputs": [
        {
          "internalType": "bool",
          "name": "",
          "type": "bool"
        }
      ],
      "stateMutability": "view",
      "type": "function"
    },
    {
      "inputs": [
        {
          "internalType": "address",
          "name": "owner",
          "type": "address"
        },
        {
          "internalType": "address",
          "name": "operator",
          "type": "address"
        }
      ],
      "name": "isApprovedForAll",
      "outputs": [
        {
          "internalType": "bool",
          "name": "",
          "type": "bool"
        }
      ],
      "stateMutability": "view",
      "type": "function"
    },
    {
      "inputs": [],
      "name": "name",
      "outputs": [
        {
          "internalType": "string",
          "name": "",
          "type": "string"
        }
      ],
      "stateMutability": "view",
      "type": "function"
    },
    {
      "inputs": [
        {
          "internalType": "uint256",
          "name": "tokenId",
          "type": "uint256"
        }
      ],
      "name": "ownerOf",
      "outputs": [
        {
          "internalType": "address",
          "name": "",
          "type": "address"
        }
      ],
      "stateMutability": "view",
      "type": "function"
    },
    {
      "inputs": [
        {
          "internalType": "bytes32",
          "name": "role",
          "type": "bytes32"
        },
        {
          "internalType": "address",
          "name": "account",
          "type": "address"
        }
      ],
      "name": "renounceRole",
      "outputs": [],
      "stateMutability": "nonpayable",
      "type": "function"
    },
    {
      "inputs": [
        {
          "internalType": "bytes32",
          "name": "role",
          "type": "bytes32"
        },
        {
          "internalType": "address",
          "name": "account",
          "type": "address"
        }
      ],
      "name": "revokeRole",
      "outputs": [],
      "stateMutability": "nonpayable",
      "type": "function"
    },
    {
      "inputs": [
        {
          "internalType": "address",
          "name": "from",
          "type": "address"
        },
        {
          "internalType": "address",
          "name": "to",
          "type": "address"
        },
        {
          "internalType": "uint256",
          "name": "tokenId",
          "type": "uint256"
        }
      ],
      "name": "safeTransferFrom",
      "outputs": [],
      "stateMutability": "nonpayable",
      "type": "function"
    },
    {
      "inputs": [
        {
          "internalType": "address",
          "name": "from",
          "type": "address"
        },
        {
          "internalType": "address",
          "name": "to",
          "type": "address"
        },
        {
          "internalType": "uint256",
          "name": "tokenId",
          "type": "uint256"
        },
        {
          "internalType": "bytes",
          "name": "_data",
          "type": "bytes"
        }
      ],
      "name": "safeTransferFrom",
      "outputs": [],
      "stateMutability": "nonpayable",
      "type": "function"
    },
    {
      "inputs": [
        {
          "internalType": "address",
          "name": "operator",
          "type": "address"
        },
        {
          "internalType": "bool",
          "name": "approved",
          "type": "bool"
        }
      ],
      "name": "setApprovalForAll",
      "outputs": [],
      "stateMutability": "nonpayable",
      "type": "function"
    },
    {
      "inputs": [],
      "name": "symbol",
      "outputs": [
        {
          "internalType": "string",
          "name": "",
          "type": "string"
        }
      ],
      "stateMutability": "view",
      "type": "function"
    },
    {
      "inputs": [
        {
          "internalType": "address",
          "name": "from",
          "type": "address"
        },
        {
          "internalType": "address",
          "name": "to",
          "type": "address"
        },
        {
          "internalType": "uint256",
          "name": "tokenId",
          "type": "uint256"
        }
      ],
      "name": "transferFrom",
      "outputs": [],
      "stateMutability": "nonpayable",
      "type": "function"
    },
    {
      "inputs": [],
      "name": "returnNFTCount",
      "outputs": [
        {
          "internalType": "uint256",
          "name": "",
          "type": "uint256"
        }
      ],
      "stateMutability": "view",
      "type": "function"
    },
    {
      "inputs": [
        {
          "internalType": "address",
          "name": "_to",
          "type": "address"
        },
        {
          "internalType": "string",
          "name": "_tokenURI",
          "type": "string"
        }
      ],
      "name": "safeMint",
      "outputs": [],
      "stateMutability": "nonpayable",
      "type": "function"
    },
    {
      "inputs": [
        {
          "internalType": "uint256",
          "name": "tokenId",
          "type": "uint256"
        }
      ],
      "name": "tokenURI",
      "outputs": [
        {
          "internalType": "string",
          "name": "",
          "type": "string"
        }
      ],
      "stateMutability": "view",
      "type": "function"
    },
    {
      "inputs": [
        {
          "internalType": "bytes4",
          "name": "interfaceId",
          "type": "bytes4"
        }
      ],
      "name": "supportsInterface",
      "outputs": [
        {
          "internalType": "bool",
          "name": "",
          "type": "bool"
        }
      ],
      "stateMutability": "view",
      "type": "function"
    }
  ],
  "bytecode": "0x60806040523480156200001157600080fd5b506040518060400160405280600d81526020017f416e626553686976616d4e4654000000000000000000000000000000000000008152506040518060400160405280600481526020017f414e42450000000000000000000000000000000000000000000000000000000081525081600090805190602001906200009692919062000248565b508060019080519060200190620000af92919062000248565b505050620000c76000801b33620000cd60201b60201c565b6200035d565b620000df8282620000e360201b60201c565b5050565b620000f58282620001d560201b60201c565b620001d15760016007600084815260200190815260200160002060000160008373ffffffffffffffffffffffffffffffffffffffff1673ffffffffffffffffffffffffffffffffffffffff16815260200190815260200160002060006101000a81548160ff021916908315150217905550620001766200024060201b60201c565b73ffffffffffffffffffffffffffffffffffffffff168173ffffffffffffffffffffffffffffffffffffffff16837f2f8788117e7eff1d82e926ec794901d17c78024a50270940304540a733656f0d60405160405180910390a45b5050565b60006007600084815260200190815260200160002060000160008373ffffffffffffffffffffffffffffffffffffffff1673ffffffffffffffffffffffffffffffffffffffff16815260200190815260200160002060009054906101000a900460ff16905092915050565b600033905090565b828054620002569062000327565b90600052602060002090601f0160209004810192826200027a5760008555620002c6565b82601f106200029557805160ff1916838001178555620002c6565b82800160010185558215620002c6579182015b82811115620002c5578251825591602001919060010190620002a8565b5b509050620002d59190620002d9565b5090565b5b80821115620002f4576000816000905550600101620002da565b5090565b7f4e487b7100000000000000000000000000000000000000000000000000000000600052602260045260246000fd5b600060028204905060018216806200034057607f821691505b60208210811415620003575762000356620002f8565b5b50919050565b6138f2806200036d6000396000f3fe608060405234801561001057600080fd5b506004361061014d5760003560e01c806370a08231116100c3578063b88d4fde1161007c578063b88d4fde146103c3578063c87b56dd146103df578063d204c45e1461040f578063d53913931461042b578063d547741f14610449578063e985e9c5146104655761014d565b806370a08231146102da57806391d148541461030a57806395d89b411461033a57806398e36d8b14610358578063a217fddf14610389578063a22cb465146103a75761014d565b8063248a9ca311610115578063248a9ca3146102085780632f2ff15d1461023857806336568abe146102545780633ed6c81a1461027057806342842e0e1461028e5780636352211e146102aa5761014d565b806301ffc9a71461015257806306fdde0314610182578063081812fc146101a0578063095ea7b3146101d057806323b872dd146101ec575b600080fd5b61016c6004803603810190610167919061230a565b610495565b6040516101799190612352565b60405180910390f35b61018a6104a7565b6040516101979190612406565b60405180910390f35b6101ba60048036038101906101b5919061245e565b610539565b6040516101c791906124cc565b60405180910390f35b6101ea60048036038101906101e59190612513565b6105be565b005b61020660048036038101906102019190612553565b6106d6565b005b610222600480360381019061021d91906125dc565b610736565b60405161022f9190612618565b60405180910390f35b610252600480360381019061024d9190612633565b610756565b005b61026e60048036038101906102699190612633565b61077f565b005b610278610802565b6040516102859190612682565b60405180910390f35b6102a860048036038101906102a39190612553565b610813565b005b6102c460048036038101906102bf919061245e565b610833565b6040516102d191906124cc565b60405180910390f35b6102f460048036038101906102ef919061269d565b6108e5565b6040516103019190612682565b60405180910390f35b610324600480360381019061031f9190612633565b61099d565b6040516103319190612352565b60405180910390f35b610342610a08565b60405161034f9190612406565b60405180910390f35b610372600480360381019061036d919061245e565b610a9a565b6040516103809291906126ca565b60405180910390f35b610391610aee565b60405161039e9190612618565b60405180910390f35b6103c160048036038101906103bc919061271f565b610af5565b005b6103dd60048036038101906103d89190612894565b610b0b565b005b6103f960048036038101906103f4919061245e565b610b6d565b6040516104069190612406565b60405180910390f35b610429600480360381019061042491906129b8565b610b7f565b005b610433610c98565b6040516104409190612618565b60405180910390f35b610463600480360381019061045e9190612633565b610cbc565b005b61047f600480360381019061047a9190612a14565b610ce5565b60405161048c9190612352565b60405180910390f35b60006104a082610d79565b9050919050565b6060600080546104b690612a83565b80601f01602080910402602001604051908101604052809291908181526020018280546104e290612a83565b801561052f5780601f106105045761010080835404028352916020019161052f565b820191906000526020600020905b81548152906001019060200180831161051257829003601f168201915b5050505050905090565b600061054482610df3565b610583576040517f08c379a000000000000000000000000000000000000000000000000000000000815260040161057a90612b27565b60405180910390fd5b6004600083815260200190815260200160002060009054906101000a900473ffffffffffffffffffffffffffffffffffffffff169050919050565b60006105c982610833565b90508073ffffffffffffffffffffffffffffffffffffffff168373ffffffffffffffffffffffffffffffffffffffff16141561063a576040517f08c379a000000000000000000000000000000000000000000000000000000000815260040161063190612bb9565b60405180910390fd5b8073ffffffffffffffffffffffffffffffffffffffff16610659610e5f565b73ffffffffffffffffffffffffffffffffffffffff161480610688575061068781610682610e5f565b610ce5565b5b6106c7576040517f08c379a00000000000000000000000000000000000000000000000000000000081526004016106be90612c4b565b60405180910390fd5b6106d18383610e67565b505050565b6106e76106e1610e5f565b82610f20565b610726576040517f08c379a000000000000000000000000000000000000000000000000000000000815260040161071d90612cdd565b60405180910390fd5b610731838383610ffe565b505050565b600060076000838152602001908152602001600020600101549050919050565b61075f82610736565b6107708161076b610e5f565b61125a565b61077a83836112f7565b505050565b610787610e5f565b73ffffffffffffffffffffffffffffffffffffffff168173ffffffffffffffffffffffffffffffffffffffff16146107f4576040517f08c379a00000000000000000000000000000000000000000000000000000000081526004016107eb90612d6f565b60405180910390fd5b6107fe82826113d8565b5050565b600061080e60086114ba565b905090565b61082e83838360405180602001604052806000815250610b0b565b505050565b6000806002600084815260200190815260200160002060009054906101000a900473ffffffffffffffffffffffffffffffffffffffff169050600073ffffffffffffffffffffffffffffffffffffffff168173ffffffffffffffffffffffffffffffffffffffff1614156108dc576040517f08c379a00000000000000000000000000000000000000000000000000000000081526004016108d390612e01565b60405180910390fd5b80915050919050565b60008073ffffffffffffffffffffffffffffffffffffffff168273ffffffffffffffffffffffffffffffffffffffff161415610956576040517f08c379a000000000000000000000000000000000000000000000000000000000815260040161094d90612e93565b60405180910390fd5b600360008373ffffffffffffffffffffffffffffffffffffffff1673ffffffffffffffffffffffffffffffffffffffff168152602001908152602001600020549050919050565b60006007600084815260200190815260200160002060000160008373ffffffffffffffffffffffffffffffffffffffff1673ffffffffffffffffffffffffffffffffffffffff16815260200190815260200160002060009054906101000a900460ff16905092915050565b606060018054610a1790612a83565b80601f0160208091040260200160405190810160405280929190818152602001828054610a4390612a83565b8015610a905780601f10610a6557610100808354040283529160200191610a90565b820191906000526020600020905b815481529060010190602001808311610a7357829003601f168201915b5050505050905090565b60098181548110610aaa57600080fd5b90600052602060002090600202016000915090508060000154908060010160009054906101000a900473ffffffffffffffffffffffffffffffffffffffff16905082565b6000801b81565b610b07610b00610e5f565b83836114c8565b5050565b610b1c610b16610e5f565b83610f20565b610b5b576040517f08c379a0000000000000000000000000000000000000000000000000000000008152600401610b5290612cdd565b60405180910390fd5b610b6784848484611635565b50505050565b6060610b7882611691565b9050919050565b7f9f2df0fed2c77648de5860a4cc508cd0818c85b8b8a1ab4ceeef8d981c8956a6610bb181610bac610e5f565b61125a565b610bc483610bbf60086114ba565b6117e3565b610bd7610bd160086114ba565b83611801565b60096040518060400160405280610bee60086114ba565b81526020018573ffffffffffffffffffffffffffffffffffffffff1681525090806001815401808255809150506001900390600052602060002090600202016000909190919091506000820151816000015560208201518160010160006101000a81548173ffffffffffffffffffffffffffffffffffffffff021916908373ffffffffffffffffffffffffffffffffffffffff1602179055505050610c936008611875565b505050565b7f9f2df0fed2c77648de5860a4cc508cd0818c85b8b8a1ab4ceeef8d981c8956a681565b610cc582610736565b610cd681610cd1610e5f565b61125a565b610ce083836113d8565b505050565b6000600560008473ffffffffffffffffffffffffffffffffffffffff1673ffffffffffffffffffffffffffffffffffffffff16815260200190815260200160002060008373ffffffffffffffffffffffffffffffffffffffff1673ffffffffffffffffffffffffffffffffffffffff16815260200190815260200160002060009054906101000a900460ff16905092915050565b60007f7965db0b000000000000000000000000000000000000000000000000000000007bffffffffffffffffffffffffffffffffffffffffffffffffffffffff1916827bffffffffffffffffffffffffffffffffffffffffffffffffffffffff19161480610dec5750610deb8261188b565b5b9050919050565b60008073ffffffffffffffffffffffffffffffffffffffff166002600084815260200190815260200160002060009054906101000a900473ffffffffffffffffffffffffffffffffffffffff1673ffffffffffffffffffffffffffffffffffffffff1614159050919050565b600033905090565b816004600083815260200190815260200160002060006101000a81548173ffffffffffffffffffffffffffffffffffffffff021916908373ffffffffffffffffffffffffffffffffffffffff160217905550808273ffffffffffffffffffffffffffffffffffffffff16610eda83610833565b73ffffffffffffffffffffffffffffffffffffffff167f8c5be1e5ebec7d5bd14f71427d1e84f3dd0314c0f7b2291e5b200ac8c7c3b92560405160405180910390a45050565b6000610f2b82610df3565b610f6a576040517f08c379a0000000000000000000000000000000000000000000000000000000008152600401610f6190612f25565b60405180910390fd5b6000610f7583610833565b90508073ffffffffffffffffffffffffffffffffffffffff168473ffffffffffffffffffffffffffffffffffffffff161480610fe457508373ffffffffffffffffffffffffffffffffffffffff16610fcc84610539565b73ffffffffffffffffffffffffffffffffffffffff16145b80610ff55750610ff48185610ce5565b5b91505092915050565b8273ffffffffffffffffffffffffffffffffffffffff1661101e82610833565b73ffffffffffffffffffffffffffffffffffffffff1614611074576040517f08c379a000000000000000000000000000000000000000000000000000000000815260040161106b90612fb7565b60405180910390fd5b600073ffffffffffffffffffffffffffffffffffffffff168273ffffffffffffffffffffffffffffffffffffffff1614156110e4576040517f08c379a00000000000000000000000000000000000000000000000000000000081526004016110db90613049565b60405180910390fd5b6110ef83838361196d565b6110fa600082610e67565b6001600360008573ffffffffffffffffffffffffffffffffffffffff1673ffffffffffffffffffffffffffffffffffffffff168152602001908152602001600020600082825461114a9190613098565b925050819055506001600360008473ffffffffffffffffffffffffffffffffffffffff1673ffffffffffffffffffffffffffffffffffffffff16815260200190815260200160002060008282546111a191906130cc565b92505081905550816002600083815260200190815260200160002060006101000a81548173ffffffffffffffffffffffffffffffffffffffff021916908373ffffffffffffffffffffffffffffffffffffffff160217905550808273ffffffffffffffffffffffffffffffffffffffff168473ffffffffffffffffffffffffffffffffffffffff167fddf252ad1be2c89b69c2b068fc378daa952ba7f163c4a11628f55a4df523b3ef60405160405180910390a4505050565b611264828261099d565b6112f3576112898173ffffffffffffffffffffffffffffffffffffffff166014611972565b6112978360001c6020611972565b6040516020016112a89291906131f6565b6040516020818303038152906040526040517f08c379a00000000000000000000000000000000000000000000000000000000081526004016112ea9190612406565b60405180910390fd5b5050565b611301828261099d565b6113d45760016007600084815260200190815260200160002060000160008373ffffffffffffffffffffffffffffffffffffffff1673ffffffffffffffffffffffffffffffffffffffff16815260200190815260200160002060006101000a81548160ff021916908315150217905550611379610e5f565b73ffffffffffffffffffffffffffffffffffffffff168173ffffffffffffffffffffffffffffffffffffffff16837f2f8788117e7eff1d82e926ec794901d17c78024a50270940304540a733656f0d60405160405180910390a45b5050565b6113e2828261099d565b156114b65760006007600084815260200190815260200160002060000160008373ffffffffffffffffffffffffffffffffffffffff1673ffffffffffffffffffffffffffffffffffffffff16815260200190815260200160002060006101000a81548160ff02191690831515021790555061145b610e5f565b73ffffffffffffffffffffffffffffffffffffffff168173ffffffffffffffffffffffffffffffffffffffff16837ff6391f5c32d9c69d2a47ea670b442974b53935d1edc7fd64eb21e047a839171b60405160405180910390a45b5050565b600081600001549050919050565b8173ffffffffffffffffffffffffffffffffffffffff168373ffffffffffffffffffffffffffffffffffffffff161415611537576040517f08c379a000000000000000000000000000000000000000000000000000000000815260040161152e9061327c565b60405180910390fd5b80600560008573ffffffffffffffffffffffffffffffffffffffff1673ffffffffffffffffffffffffffffffffffffffff16815260200190815260200160002060008473ffffffffffffffffffffffffffffffffffffffff1673ffffffffffffffffffffffffffffffffffffffff16815260200190815260200160002060006101000a81548160ff0219169083151502179055508173ffffffffffffffffffffffffffffffffffffffff168373ffffffffffffffffffffffffffffffffffffffff167f17307eab39ab6107e8899845ad3d59bd9653f200f220920489ca2b5937696c31836040516116289190612352565b60405180910390a3505050565b611640848484610ffe565b61164c84848484611bae565b61168b576040517f08c379a00000000000000000000000000000000000000000000000000000000081526004016116829061330e565b60405180910390fd5b50505050565b606061169c82610df3565b6116db576040517f08c379a00000000000000000000000000000000000000000000000000000000081526004016116d2906133a0565b60405180910390fd5b60006006600084815260200190815260200160002080546116fb90612a83565b80601f016020809104026020016040519081016040528092919081815260200182805461172790612a83565b80156117745780601f1061174957610100808354040283529160200191611774565b820191906000526020600020905b81548152906001019060200180831161175757829003601f168201915b505050505090506000611785611d36565b905060008151141561179b5781925050506117de565b6000825111156117d05780826040516020016117b89291906133c0565b604051602081830303815290604052925050506117de565b6117d984611d4d565b925050505b919050565b6117fd828260405180602001604052806000815250611df4565b5050565b61180a82610df3565b611849576040517f08c379a000000000000000000000000000000000000000000000000000000000815260040161184090613456565b60405180910390fd5b806006600084815260200190815260200160002090805190602001906118709291906121fb565b505050565b6001816000016000828254019250508190555050565b60007f80ac58cd000000000000000000000000000000000000000000000000000000007bffffffffffffffffffffffffffffffffffffffffffffffffffffffff1916827bffffffffffffffffffffffffffffffffffffffffffffffffffffffff1916148061195657507f5b5e139f000000000000000000000000000000000000000000000000000000007bffffffffffffffffffffffffffffffffffffffffffffffffffffffff1916827bffffffffffffffffffffffffffffffffffffffffffffffffffffffff1916145b80611966575061196582611e4f565b5b9050919050565b505050565b6060600060028360026119859190613476565b61198f91906130cc565b67ffffffffffffffff8111156119a8576119a7612769565b5b6040519080825280601f01601f1916602001820160405280156119da5781602001600182028036833780820191505090505b5090507f300000000000000000000000000000000000000000000000000000000000000081600081518110611a1257611a116134d0565b5b60200101907effffffffffffffffffffffffffffffffffffffffffffffffffffffffffffff1916908160001a9053507f780000000000000000000000000000000000000000000000000000000000000081600181518110611a7657611a756134d0565b5b60200101907effffffffffffffffffffffffffffffffffffffffffffffffffffffffffffff1916908160001a90535060006001846002611ab69190613476565b611ac091906130cc565b90505b6001811115611b60577f3031323334353637383961626364656600000000000000000000000000000000600f861660108110611b0257611b016134d0565b5b1a60f81b828281518110611b1957611b186134d0565b5b60200101907effffffffffffffffffffffffffffffffffffffffffffffffffffffffffffff1916908160001a905350600485901c945080611b59906134ff565b9050611ac3565b5060008414611ba4576040517f08c379a0000000000000000000000000000000000000000000000000000000008152600401611b9b90613575565b60405180910390fd5b8091505092915050565b6000611bcf8473ffffffffffffffffffffffffffffffffffffffff16611eb9565b15611d29578373ffffffffffffffffffffffffffffffffffffffff1663150b7a02611bf8610e5f565b8786866040518563ffffffff1660e01b8152600401611c1a94939291906135ea565b6020604051808303816000875af1925050508015611c5657506040513d601f19601f82011682018060405250810190611c53919061364b565b60015b611cd9573d8060008114611c86576040519150601f19603f3d011682016040523d82523d6000602084013e611c8b565b606091505b50600081511415611cd1576040517f08c379a0000000000000000000000000000000000000000000000000000000008152600401611cc89061330e565b60405180910390fd5b805181602001fd5b63150b7a0260e01b7bffffffffffffffffffffffffffffffffffffffffffffffffffffffff1916817bffffffffffffffffffffffffffffffffffffffffffffffffffffffff191614915050611d2e565b600190505b949350505050565b606060405180602001604052806000815250905090565b6060611d5882610df3565b611d97576040517f08c379a0000000000000000000000000000000000000000000000000000000008152600401611d8e906136ea565b60405180910390fd5b6000611da1611d36565b90506000815111611dc15760405180602001604052806000815250611dec565b80611dcb84611ecc565b604051602001611ddc9291906133c0565b6040516020818303038152906040525b915050919050565b611dfe838361202d565b611e0b6000848484611bae565b611e4a576040517f08c379a0000000000000000000000000000000000000000000000000000000008152600401611e419061330e565b60405180910390fd5b505050565b60007f01ffc9a7000000000000000000000000000000000000000000000000000000007bffffffffffffffffffffffffffffffffffffffffffffffffffffffff1916827bffffffffffffffffffffffffffffffffffffffffffffffffffffffff1916149050919050565b600080823b905060008111915050919050565b60606000821415611f14576040518060400160405280600181526020017f30000000000000000000000000000000000000000000000000000000000000008152509050612028565b600082905060005b60008214611f46578080611f2f9061370a565b915050600a82611f3f9190613782565b9150611f1c565b60008167ffffffffffffffff811115611f6257611f61612769565b5b6040519080825280601f01601f191660200182016040528015611f945781602001600182028036833780820191505090505b5090505b6000851461202157600182611fad9190613098565b9150600a85611fbc91906137b3565b6030611fc891906130cc565b60f81b818381518110611fde57611fdd6134d0565b5b60200101907effffffffffffffffffffffffffffffffffffffffffffffffffffffffffffff1916908160001a905350600a8561201a9190613782565b9450611f98565b8093505050505b919050565b600073ffffffffffffffffffffffffffffffffffffffff168273ffffffffffffffffffffffffffffffffffffffff16141561209d576040517f08c379a000000000000000000000000000000000000000000000000000000000815260040161209490613830565b60405180910390fd5b6120a681610df3565b156120e6576040517f08c379a00000000000000000000000000000000000000000000000000000000081526004016120dd9061389c565b60405180910390fd5b6120f26000838361196d565b6001600360008473ffffffffffffffffffffffffffffffffffffffff1673ffffffffffffffffffffffffffffffffffffffff168152602001908152602001600020600082825461214291906130cc565b92505081905550816002600083815260200190815260200160002060006101000a81548173ffffffffffffffffffffffffffffffffffffffff021916908373ffffffffffffffffffffffffffffffffffffffff160217905550808273ffffffffffffffffffffffffffffffffffffffff16600073ffffffffffffffffffffffffffffffffffffffff167fddf252ad1be2c89b69c2b068fc378daa952ba7f163c4a11628f55a4df523b3ef60405160405180910390a45050565b82805461220790612a83565b90600052602060002090601f0160209004810192826122295760008555612270565b82601f1061224257805160ff1916838001178555612270565b82800160010185558215612270579182015b8281111561226f578251825591602001919060010190612254565b5b50905061227d9190612281565b5090565b5b8082111561229a576000816000905550600101612282565b5090565b6000604051905090565b600080fd5b600080fd5b60007fffffffff0000000000000000000000000000000000000000000000000000000082169050919050565b6122e7816122b2565b81146122f257600080fd5b50565b600081359050612304816122de565b92915050565b6000602082840312156123205761231f6122a8565b5b600061232e848285016122f5565b91505092915050565b60008115159050919050565b61234c81612337565b82525050565b60006020820190506123676000830184612343565b92915050565b600081519050919050565b600082825260208201905092915050565b60005b838110156123a757808201518184015260208101905061238c565b838111156123b6576000848401525b50505050565b6000601f19601f8301169050919050565b60006123d88261236d565b6123e28185612378565b93506123f2818560208601612389565b6123fb816123bc565b840191505092915050565b6000602082019050818103600083015261242081846123cd565b905092915050565b6000819050919050565b61243b81612428565b811461244657600080fd5b50565b60008135905061245881612432565b92915050565b600060208284031215612474576124736122a8565b5b600061248284828501612449565b91505092915050565b600073ffffffffffffffffffffffffffffffffffffffff82169050919050565b60006124b68261248b565b9050919050565b6124c6816124ab565b82525050565b60006020820190506124e160008301846124bd565b92915050565b6124f0816124ab565b81146124fb57600080fd5b50565b60008135905061250d816124e7565b92915050565b6000806040838503121561252a576125296122a8565b5b6000612538858286016124fe565b925050602061254985828601612449565b9150509250929050565b60008060006060848603121561256c5761256b6122a8565b5b600061257a868287016124fe565b935050602061258b868287016124fe565b925050604061259c86828701612449565b9150509250925092565b6000819050919050565b6125b9816125a6565b81146125c457600080fd5b50565b6000813590506125d6816125b0565b92915050565b6000602082840312156125f2576125f16122a8565b5b6000612600848285016125c7565b91505092915050565b612612816125a6565b82525050565b600060208201905061262d6000830184612609565b92915050565b6000806040838503121561264a576126496122a8565b5b6000612658858286016125c7565b9250506020612669858286016124fe565b9150509250929050565b61267c81612428565b82525050565b60006020820190506126976000830184612673565b92915050565b6000602082840312156126b3576126b26122a8565b5b60006126c1848285016124fe565b91505092915050565b60006040820190506126df6000830185612673565b6126ec60208301846124bd565b9392505050565b6126fc81612337565b811461270757600080fd5b50565b600081359050612719816126f3565b92915050565b60008060408385031215612736576127356122a8565b5b6000612744858286016124fe565b92505060206127558582860161270a565b9150509250929050565b600080fd5b600080fd5b7f4e487b7100000000000000000000000000000000000000000000000000000000600052604160045260246000fd5b6127a1826123bc565b810181811067ffffffffffffffff821117156127c0576127bf612769565b5b80604052505050565b60006127d361229e565b90506127df8282612798565b919050565b600067ffffffffffffffff8211156127ff576127fe612769565b5b612808826123bc565b9050602081019050919050565b82818337600083830152505050565b6000612837612832846127e4565b6127c9565b90508281526020810184848401111561285357612852612764565b5b61285e848285612815565b509392505050565b600082601f83011261287b5761287a61275f565b5b813561288b848260208601612824565b91505092915050565b600080600080608085870312156128ae576128ad6122a8565b5b60006128bc878288016124fe565b94505060206128cd878288016124fe565b93505060406128de87828801612449565b925050606085013567ffffffffffffffff8111156128ff576128fe6122ad565b5b61290b87828801612866565b91505092959194509250565b600067ffffffffffffffff82111561293257612931612769565b5b61293b826123bc565b9050602081019050919050565b600061295b61295684612917565b6127c9565b90508281526020810184848401111561297757612976612764565b5b612982848285612815565b509392505050565b600082601f83011261299f5761299e61275f565b5b81356129af848260208601612948565b91505092915050565b600080604083850312156129cf576129ce6122a8565b5b60006129dd858286016124fe565b925050602083013567ffffffffffffffff8111156129fe576129fd6122ad565b5b612a0a8582860161298a565b9150509250929050565b60008060408385031215612a2b57612a2a6122a8565b5b6000612a39858286016124fe565b9250506020612a4a858286016124fe565b9150509250929050565b7f4e487b7100000000000000000000000000000000000000000000000000000000600052602260045260246000fd5b60006002820490506001821680612a9b57607f821691505b60208210811415612aaf57612aae612a54565b5b50919050565b7f4552433732313a20617070726f76656420717565727920666f72206e6f6e657860008201527f697374656e7420746f6b656e0000000000000000000000000000000000000000602082015250565b6000612b11602c83612378565b9150612b1c82612ab5565b604082019050919050565b60006020820190508181036000830152612b4081612b04565b9050919050565b7f4552433732313a20617070726f76616c20746f2063757272656e74206f776e6560008201527f7200000000000000000000000000000000000000000000000000000000000000602082015250565b6000612ba3602183612378565b9150612bae82612b47565b604082019050919050565b60006020820190508181036000830152612bd281612b96565b9050919050565b7f4552433732313a20617070726f76652063616c6c6572206973206e6f74206f7760008201527f6e6572206e6f7220617070726f76656420666f7220616c6c0000000000000000602082015250565b6000612c35603883612378565b9150612c4082612bd9565b604082019050919050565b60006020820190508181036000830152612c6481612c28565b9050919050565b7f4552433732313a207472616e736665722063616c6c6572206973206e6f74206f60008201527f776e6572206e6f7220617070726f766564000000000000000000000000000000602082015250565b6000612cc7603183612378565b9150612cd282612c6b565b604082019050919050565b60006020820190508181036000830152612cf681612cba565b9050919050565b7f416363657373436f6e74726f6c3a2063616e206f6e6c792072656e6f756e636560008201527f20726f6c657320666f722073656c660000000000000000000000000000000000602082015250565b6000612d59602f83612378565b9150612d6482612cfd565b604082019050919050565b60006020820190508181036000830152612d8881612d4c565b9050919050565b7f4552433732313a206f776e657220717565727920666f72206e6f6e657869737460008201527f656e7420746f6b656e0000000000000000000000000000000000000000000000602082015250565b6000612deb602983612378565b9150612df682612d8f565b604082019050919050565b60006020820190508181036000830152612e1a81612dde565b9050919050565b7f4552433732313a2062616c616e636520717565727920666f7220746865207a6560008201527f726f206164647265737300000000000000000000000000000000000000000000602082015250565b6000612e7d602a83612378565b9150612e8882612e21565b604082019050919050565b60006020820190508181036000830152612eac81612e70565b9050919050565b7f4552433732313a206f70657261746f7220717565727920666f72206e6f6e657860008201527f697374656e7420746f6b656e0000000000000000000000000000000000000000602082015250565b6000612f0f602c83612378565b9150612f1a82612eb3565b604082019050919050565b60006020820190508181036000830152612f3e81612f02565b9050919050565b7f4552433732313a207472616e73666572206f6620746f6b656e2074686174206960008201527f73206e6f74206f776e0000000000000000000000000000000000000000000000602082015250565b6000612fa1602983612378565b9150612fac82612f45565b604082019050919050565b60006020820190508181036000830152612fd081612f94565b9050919050565b7f4552433732313a207472616e7366657220746f20746865207a65726f2061646460008201527f7265737300000000000000000000000000000000000000000000000000000000602082015250565b6000613033602483612378565b915061303e82612fd7565b604082019050919050565b6000602082019050818103600083015261306281613026565b9050919050565b7f4e487b7100000000000000000000000000000000000000000000000000000000600052601160045260246000fd5b60006130a382612428565b91506130ae83612428565b9250828210156130c1576130c0613069565b5b828203905092915050565b60006130d782612428565b91506130e283612428565b9250827fffffffffffffffffffffffffffffffffffffffffffffffffffffffffffffffff0382111561311757613116613069565b5b828201905092915050565b600081905092915050565b7f416363657373436f6e74726f6c3a206163636f756e7420000000000000000000600082015250565b6000613163601783613122565b915061316e8261312d565b601782019050919050565b60006131848261236d565b61318e8185613122565b935061319e818560208601612389565b80840191505092915050565b7f206973206d697373696e6720726f6c6520000000000000000000000000000000600082015250565b60006131e0601183613122565b91506131eb826131aa565b601182019050919050565b600061320182613156565b915061320d8285613179565b9150613218826131d3565b91506132248284613179565b91508190509392505050565b7f4552433732313a20617070726f766520746f2063616c6c657200000000000000600082015250565b6000613266601983612378565b915061327182613230565b602082019050919050565b6000602082019050818103600083015261329581613259565b9050919050565b7f4552433732313a207472616e7366657220746f206e6f6e20455243373231526560008201527f63656976657220696d706c656d656e7465720000000000000000000000000000602082015250565b60006132f8603283612378565b91506133038261329c565b604082019050919050565b60006020820190508181036000830152613327816132eb565b9050919050565b7f45524337323155524953746f726167653a2055524920717565727920666f722060008201527f6e6f6e6578697374656e7420746f6b656e000000000000000000000000000000602082015250565b600061338a603183612378565b91506133958261332e565b604082019050919050565b600060208201905081810360008301526133b98161337d565b9050919050565b60006133cc8285613179565b91506133d88284613179565b91508190509392505050565b7f45524337323155524953746f726167653a2055524920736574206f66206e6f6e60008201527f6578697374656e7420746f6b656e000000000000000000000000000000000000602082015250565b6000613440602e83612378565b915061344b826133e4565b604082019050919050565b6000602082019050818103600083015261346f81613433565b9050919050565b600061348182612428565b915061348c83612428565b9250817fffffffffffffffffffffffffffffffffffffffffffffffffffffffffffffffff04831182151516156134c5576134c4613069565b5b828202905092915050565b7f4e487b7100000000000000000000000000000000000000000000000000000000600052603260045260246000fd5b600061350a82612428565b9150600082141561351e5761351d613069565b5b600182039050919050565b7f537472696e67733a20686578206c656e67746820696e73756666696369656e74600082015250565b600061355f602083612378565b915061356a82613529565b602082019050919050565b6000602082019050818103600083015261358e81613552565b9050919050565b600081519050919050565b600082825260208201905092915050565b60006135bc82613595565b6135c681856135a0565b93506135d6818560208601612389565b6135df816123bc565b840191505092915050565b60006080820190506135ff60008301876124bd565b61360c60208301866124bd565b6136196040830185612673565b818103606083015261362b81846135b1565b905095945050505050565b600081519050613645816122de565b92915050565b600060208284031215613661576136606122a8565b5b600061366f84828501613636565b91505092915050565b7f4552433732314d657461646174613a2055524920717565727920666f72206e6f60008201527f6e6578697374656e7420746f6b656e0000000000000000000000000000000000602082015250565b60006136d4602f83612378565b91506136df82613678565b604082019050919050565b60006020820190508181036000830152613703816136c7565b9050919050565b600061371582612428565b91507fffffffffffffffffffffffffffffffffffffffffffffffffffffffffffffffff82141561374857613747613069565b5b600182019050919050565b7f4e487b7100000000000000000000000000000000000000000000000000000000600052601260045260246000fd5b600061378d82612428565b915061379883612428565b9250826137a8576137a7613753565b5b828204905092915050565b60006137be82612428565b91506137c983612428565b9250826137d9576137d8613753565b5b828206905092915050565b7f4552433732313a206d696e7420746f20746865207a65726f2061646472657373600082015250565b600061381a602083612378565b9150613825826137e4565b602082019050919050565b600060208201905081810360008301526138498161380d565b9050919050565b7f4552433732313a20746f6b656e20616c7265616479206d696e74656400000000600082015250565b6000613886601c83612378565b915061389182613850565b602082019050919050565b600060208201905081810360008301526138b581613879565b905091905056fea2646970667358221220f2bba02167c8b221e97187e2b0e178cb5dd550561c93b263bed2e5f7e79433ea64736f6c634300080b0033",
  "immutableReferences": {},
  "source": "// SPDX-License-Identifier: MIT\r\npragma solidity ^0.8.2;\r\n\r\nimport \"@openzeppelin/contracts/token/ERC721/ERC721.sol\";\r\nimport \"@openzeppelin/contracts/token/ERC721/extensions/ERC721URIStorage.sol\";\r\nimport \"@openzeppelin/contracts/access/AccessControl.sol\";\r\nimport \"@openzeppelin/contracts/utils/Counters.sol\";\r\n\r\ncontract AnbeShivamNFT is ERC721, ERC721URIStorage, AccessControl {\r\n    using Counters for Counters.Counter;\r\n\r\n    bytes32 public constant MINTER_ROLE = keccak256(\"MINTER_ROLE\");\r\n    Counters.Counter private _tokenIdCounter;\r\n\r\n    constructor() ERC721(\"AnbeShivamNFT\", \"ANBE\") {\r\n        _setupRole(DEFAULT_ADMIN_ROLE, msg.sender);\r\n    }\r\n\r\n    struct Badge {\r\n        uint tokenID;\r\n        address owner;\r\n    }\r\n\r\n    Badge[] public badges;\r\n\r\n    function returnNFTCount() public view returns(uint) {\r\n        return _tokenIdCounter.current();\r\n    }\r\n\r\n    function safeMint(address _to, string memory _tokenURI) public onlyRole(MINTER_ROLE) {\r\n        _safeMint(_to, _tokenIdCounter.current());\r\n        _setTokenURI(_tokenIdCounter.current(), _tokenURI);\r\n        badges.push(Badge(_tokenIdCounter.current(), _to));\r\n        _tokenIdCounter.increment();\r\n    }\r\n\r\n    function _burn(uint256 tokenId) internal override(ERC721, ERC721URIStorage) {\r\n        super._burn(tokenId);\r\n    }\r\n\r\n    function tokenURI(uint256 tokenId)\r\n        public\r\n        view\r\n        override(ERC721, ERC721URIStorage)\r\n        returns (string memory)\r\n    {\r\n        return super.tokenURI(tokenId);\r\n    }\r\n\r\n    function supportsInterface(bytes4 interfaceId)\r\n        public\r\n        view\r\n        override(ERC721, AccessControl)\r\n        returns (bool)\r\n    {\r\n        return super.supportsInterface(interfaceId);\r\n    }\r\n}",
  "sourcePath": "D:\\Projects\\AnbeShivam-Metis\\contracts\\AnbeShivamNFT.sol",
  "compiler": {
    "name": "solc",
    "version": "0.8.11+commit.d7f03943.Emscripten.clang"
  },
  "schemaVersion": "3.4.1",
  "updatedAt": "2021-12-23T04:13:46.476Z",
  "devdoc": {
    "kind": "dev",
    "methods": {
      "approve(address,uint256)": {
        "details": "See {IERC721-approve}."
      },
      "balanceOf(address)": {
        "details": "See {IERC721-balanceOf}."
      },
      "getApproved(uint256)": {
        "details": "See {IERC721-getApproved}."
      },
      "getRoleAdmin(bytes32)": {
        "details": "Returns the admin role that controls `role`. See {grantRole} and {revokeRole}. To change a role's admin, use {_setRoleAdmin}."
      },
      "grantRole(bytes32,address)": {
        "details": "Grants `role` to `account`. If `account` had not been already granted `role`, emits a {RoleGranted} event. Requirements: - the caller must have ``role``'s admin role."
      },
      "hasRole(bytes32,address)": {
        "details": "Returns `true` if `account` has been granted `role`."
      },
      "isApprovedForAll(address,address)": {
        "details": "See {IERC721-isApprovedForAll}."
      },
      "name()": {
        "details": "See {IERC721Metadata-name}."
      },
      "ownerOf(uint256)": {
        "details": "See {IERC721-ownerOf}."
      },
      "renounceRole(bytes32,address)": {
        "details": "Revokes `role` from the calling account. Roles are often managed via {grantRole} and {revokeRole}: this function's purpose is to provide a mechanism for accounts to lose their privileges if they are compromised (such as when a trusted device is misplaced). If the calling account had been revoked `role`, emits a {RoleRevoked} event. Requirements: - the caller must be `account`."
      },
      "revokeRole(bytes32,address)": {
        "details": "Revokes `role` from `account`. If `account` had been granted `role`, emits a {RoleRevoked} event. Requirements: - the caller must have ``role``'s admin role."
      },
      "safeTransferFrom(address,address,uint256)": {
        "details": "See {IERC721-safeTransferFrom}."
      },
      "safeTransferFrom(address,address,uint256,bytes)": {
        "details": "See {IERC721-safeTransferFrom}."
      },
      "setApprovalForAll(address,bool)": {
        "details": "See {IERC721-setApprovalForAll}."
      },
      "symbol()": {
        "details": "See {IERC721Metadata-symbol}."
      },
      "transferFrom(address,address,uint256)": {
        "details": "See {IERC721-transferFrom}."
      }
    },
    "version": 1
  },
  "userdoc": {
    "kind": "user",
    "methods": {},
    "version": 1
  }
}